:040000008A15002835
:10000800FF00030E83018316EF000A08831203170B
:100018009B008A010B1C1C28861F1828013003131B
:10002800A1000030A2001B280313A101A2010B109C
:100038000B1D262803130130CD000030CE00FC3004
:1000480081000B118B1C2F2803138B150130B9006D
:100058000030BA008B1003171B088A00831603139D
:0A0068006F0E8300FF0E7F0E0900EB
:0E007200213083120313FD00FD0B3D28080012
:100080000F3083120313FC004730FD00FD0B4628A0
:0A009000FC0B4628000000000800E9
:06009A0000000000080058
:1000A00083120317AF1B5728031307135928031391
:1000B000071703172F1B5F280313871261280313E9
:1000C00087160317AF1A672803130712692803134B
:1000D000071603172F1A6F280313871171280313AC
:1000E00087156F18752807147628071007154D20F7
:1000F00007110317AF197F28031307138128031370
:10010000071703172F19872803138712892803134A
:1001100087160317AF188F280313071291280313AC
:10012000071603172F18972803138711992803130D
:1001300087156F189D2807149E28071007154D2056
:0E01400007116F1CA5284020A62839200800B2
:10014E0083120313F801F9011030FC00710DF80D44
:10015E00F90D7408F8027508031C750FF9020318DF
:10016E00BF287408F80775080318750FF9070310F0
:0A017E00F00DF10DFC0BAD28080098
:0E018800F201F101F001F801F301003008006E
:10019600831203136F1003172E08AF0050206F143D
:0201A60008004F
:0801A800FA1FF21300300800F9
:1001B000FB14FB1FE228FF30F300F200F100F00017
:0801C000FA0DF20CFF300800FB
:1001C8007B15FB1FEE280130F300F201F101F0016D
:0801D800FA0DF20CFF300800E3
:1001E00083120317AC0105302C020318FE282C08DB
:1001F0002B07840020308000AC0AF3282C082B0742
:1002000084008001AC032C082B07AD000A30F400F9
:10021000F5012908F0002A08F100A7207808F0006D
:100220007908F1003030F00703172D0884007008BA
:1002300080000A30F400F5012908F0002A08F100D6
:10024000A72070080317A9007108AA0000307106E2
:10025000031D2C2900307006031D2F293129AC0302
:040260000329080066
:1002640083120313FD01F8017008031900347406A6
:10027400FA00FA1BFD09FB01F41F4229F409F40AF0
:10028400F01F4629F009F00A70087404FA00FA1BFA
:100294006A297408F802F00D700DF80D7408F80757
:1002A400F00D0630FC00700DF80D74087018F8029B
:1002B400701CF807F00DFC0B5529701CF8077B180F
:1002C4007829FD1F0034F009F00AF809F80A00340F
:1002D400F41F7529F01B72297008F800F0016329D6
:1002E400F001F00A0034F009FB0A4B29F80A7408FB
:1002F4007802031D6329F801F00AF01F6329FF3413
:020304000800EF
:100306009529803083120317A900A829C030A900B7
:10031600A8299430A900A829D430A900A82980309A
:10032600A900A829831203172908013A0319842969
:100336002908023A031989292908033A03198C293D
:100346002908043A03198F2992292A03F00029085B
:10035600F0077008A9007008AF0050206F1003174F
:10036600AC012C082B07840000080319C3292C08AC
:100376002B0784000008AE00CB200317AC0AB42973
:0603860003136F140800D0
:10038C00A0017208031DDB297108F2007008F1004E
:10039C00F001A0157208031DDB297108F200F101B0
:1003AC00A011201672080319E9292008F302031D75
:1003BC00031CED290310F21BF129F00DF10DF20DC8
:1003CC00F30BE129ED290130FC00C420F4290230A3
:0E03DC00FC00E420F4290430FC00D4200800CA
:1003EA0083120313FA017308031D7A147708031D95
:1003FA00FA147A080319412A033A03190C2A7A18BB
:10040A00092AF61F3F2A3D2AF21F3D2A3F2A72086F
:10041A008039FA00F21376088039F6137A0603193E
:10042A001A2A7A0803193D2A3F2A77087302031900
:10043A00212A031C352A392A760872020319282A26
:10044A00031C352A392A7508710203192F2A031C3D
:10045A00352A392A740870020319412A0318392ADD
:10046A00FA0803193F2A3D2AFA0803193D2A3F2AA6
:10047A0003140800031008000314031508000800F9
:10048A000E3083120313FD00FD0B492A00000800F9
:10049A0083120313FB017308031D77080319A42AA7
:1004AA0072087606FA007708F3077E30031C612A81
:1004BA00F3020318A72A642AF302031CAA2A720861
:1004CA00F8007108FC007008FD00F817F617031011
:1004DA00F201F101F0011830A0007D1C7E2A740897
:1004EA00F00775080318750FF10776080318760FD9
:1004FA00F207F20CF10CF00CF80CFC0CFD0C0310DA
:10050A00A00B722AF21B8E2AF80DF00DF10DF20DD6
:10051A00F3037B1B701CA02AF81FA02AF00A0319F8
:10052A00F10A0319F20A031DA02AF20CF10CF00CCD
:10053A00F30A0319A72AFA1FF2130030AC2A013072
:10054A00C420AC2A0230D820AC2A0430E4200000AF
:02055A00080097
:10055C00831203172908F2007208F100F20A2A0824
:10056C00F000AA0A700884000008F00071088400EA
:10057C00700880007108840000080319C62AB22A8A
:06058C002908F000080040
:0E059200831603136A088A00690882000800B5
:1005A0007C18062BFC18D72A7C19252BD02AA001F1
:1005B0007208031DF72A7108F2007008F10078082C
:1005C000F000F801A0157208031DF72A7108F20067
:1005D0007008F100F001A01120167208031DF72A1F
:1005E0007108F200F101A01572080319192B2008F7
:1005F000F302031D031C1D2B0310F21B062BF80D29
:10060000F00DF10DF20DF30BFD2A1D2B7B1B701C61
:10061000212BF81F212BF00A0319F10A0319F20A02
:10062000031D212BF20CF10CF00CF30A0319252BFE
:10063000212B0130FC00C420282B0230FC00E420D8
:10064000282B0430FC00D420282B0830FC00D820B4
:04065000000008009E
:1006540083120313F101F20180307206F00080303E
:1006640003171D067002031D392B1C0871020318A1
:10067400542B031385141A30FC00F830FD00FD0BD5
:10068400412BFC0B412B000085101A30FC00F83084
:10069400FD00FD0B4B2BFC0B4B2B0000F10A031947
:0606A400F20A2E2B0800F3
:1006AA00831203137008F800FB01FC019E30F3006B
:1006BA00FA01F201F101F0010230FC00D022080037
:1006CA00831203171C08F200720884000008031939
:1006DA00702BF20A692B7208F100F20A1D08F00069
:1006EA009D0A700884000008F000710884007008F0
:1006FA0080007108840000080319842B702B1C08E1
:04070A00F0000800F3
:10070E0083160313EB01EC01ED01EE018312861447
:10071E00051001300317AF00502002300317A90057
:10072E000630AA004530AB0083210430FB000C30AC
:10073E00FC003330FD00FD0BA22BFC0BA22BFB0BA0
:10074E00A22B0000000001300317AF005020023032
:10075E000317A9000630AA003B30AB008321061E0A
:08076E00BA2BB901BA01080021
:10077600831203137008F8007108F000F101F2010A
:10078600F301FB01FC019630F300FA017008F10059
:0C0796007808F000F801F201C62108000C
:1007A200831203139F01C0309F044C09F0007008AC
:1007B20083169F051F179F17831203171C08F0004B
:1007C200F00D7010F00D7010F00D70107008031322
:1007D2009F041F1445221F151F1DF12B0000ED2B36
:1007E2001F101E08F100F00183161E08F0040030ED
:0407F200F104080006
:1007F60083120317A701A8011C08A3001D08A40063
:100806001E08A5001F08A6002608FF3A031D152C82
:100816002508FF3A031D152C2408FF3A031D152C45
:100826002308FF3A031D1F2C2008A9004F30AA00F9
:10083600AE220330F000002E0130A100A51F2E2CA1
:1008460080302506F0007008A500A10A2008840063
:100856002D308000A00A0030F0002606031D3D2C36
:1008660070082506031D3D2C70082406031D3D2C2B
:100876002308003A031D462C2008A9005730AA0079
:10088600AE22F001002E2608FF3A031D542C25083F
:10089600003A031D542C2408003A031D542C230847
:1008A600003A031D5E2C2008A9005330AA00AE2290
:1008B6002108F000002E0030F4000030F500003072
:1008C600F6007F30F7002308F0002408F100250821
:1008D600F2002608F300F521013003180030F0007D
:1008E60070080319932C03172308F0002408F1005D
:1008F6002508F2002608F3000030F4000030F50069
:100906002030F6008230F7004D2270080317A3004E
:100916007108A4007208A5007308A600A8035E2C3F
:1009260003170030F4000030F5002030F600823066
:10093600F7002308F0002408F1002508F200260835
:10094600F300F5210130031C0030F0007008031994
:10095600C92C03172308F0002408F1002508F2002B
:100966002608F300CD30F400CC30F5004C30F6000C
:100976007B30F7004D2270080317A3007108A4000E
:100986007208A5007308A600A80A932C0317FF3067
:100996002305F800FF302405F9007F302505FA000D
:1009A60000302605FB007808F4007908F5007A087F
:1009B600F6007B08F700F40DF50DF60DF70D741033
:1009C60000302305F00000302405F1000030250535
:1009D600F200FF302605F3007008A3007108A4009A
:1009E6007208A5007308A60074082304F0007508B1
:1009F6002404F10076082504F20077082604F300A3
:100A06007008A3007108A4007208A5007308A60068
:100A16007F302602F0007008A2000130A6007008A0
:100A2600F4002308F0002408F1002508F200260847
:100A3600F30074080319262DF00DF10DF20DF30DD8
:100A46007010FF3E1D2D7008A3007108A4007208E7
:100A5600A5007308A6002608303EF0002008840092
:100A660070088000A00A80302806F0008030013A25
:100A76007002031C472D8030063AF00080302806AD
:100A86007002031C472D4E2D200884002E30800056
:100A9600A00A0130A7000630A2002208003A031976
:100AA600AC2DA6012308F0002408F1002508F20069
:100AB6002608F300F00DF10DF20DF30D7010F00D98
:100AC600F10DF20DF30D70102308F007240803183A
:100AD600240FF10725080318250FF2072608031827
:100AE600260FF3077008A3007108A4007208A5007A
:100AF6007308A6002308F0002408F1002508F20078
:100B06002608F300F00DF10DF20DF30D70107008CC
:100B1600A3007108A4007208A5007308A6002608A1
:100B2600303EF0002008840070088000A00A2708E4
:100B3600003A031DAA2DA8032808003A031DAA2D72
:100B4600200884002E308000A00A0130A700A203EE
:100B5600502DFF30200784000008303A031DB52DC4
:100B6600A003AC2DFF302007840000082E3A031D99
:100B7600BD2DA0032808003A0319FC2D2008840087
:100B860065308000A00A80302806F0008030003AE8
:100B960070020318D62D200884002D308000A00A8C
:100BA6002808003CA8002808A2008030093AF00076
:100BB6008030280670020318ED2D0A30F400220852
:100BC600F00032213030F007031720088400700847
:100BD6008000A00A0A30F4002208F00032217808CA
:100BE600F0003030F00703172008840070088000FA
:0C0BF600A00A200884008001F001080023
:100C020083160313071107108711071287120713A0
:100C1200831207110710071387120712871140204A
:100C2200402040200716871507154D200711402048
:100C320007154D200711402007154D2007114020B0
:100C4200871107154D200711402007154D20071168
:100C52000712071707154D200711402007138715A4
:100C620007154D200711871107154D200711402048
:100C720007154D200711871507154D200711402034
:100C8200871107154D2007110717871607168715B5
:0C0C920007154D20071140206F140800CA
:100C9E00831203171C088D0083168C130C148312F9
:060CAE000C08F000080034
:100CB40083120317A101A2011C08A3001D08A400AC
:100CC40080301D06F00080307002031D6B2E003052
:100CD4001C020318792E0130A1000030A2001C0868
:100CE400003CA3001D08031C013EA401A402230828
:100CF400A9002408AA001E08AB00F02006309F00BB
:100D04000030A0002008003C031D8A2E1F08003C70
:100D14000318A52E1F081E07F20001301F02F00061
:100D24000030031C013E2002F10070081E078400FD
:100D34000008F000720884007008800001309F02EF
:100D4400031CA003842E1E08840020308000210888
:100D540022040319C32E9F01A0011F081E0784004B
:100D64000008203A031DBA2E9F0A0319A00AAF2EC9
:100D740001309F02031CA0031F081E0784002D30AE
:040D840080000800E3
:100D8800FF30831203179800FF309900FF309A0054
:100D9800FF3003139F01C0309F044C09F000700816
:0E0DA80083169F051F179F1783121F14080044
:100DB600831603178C1CE12E0000DB2E83121C0801
:100DC6008D001D088C0083168C130C150B08F00083
:100DD6008B1355308D00AA308D008C14F01BF52E28
:0A0DE6008B13F62E8B170C1108007A
:100DF000C9228A110A128000840AE90A0319EA0A40
:080E0000F003031DF82E0800A9
:100F100021308400453083120313F000043083161F
:100F2000E9000730EA00F826A03084003530F000F0
:100F300049308316E9000730EA00F826663084005D
:100F40000930F0007E308316E9000730EA00F82609
:020F5000080097
:101000008A1188278A158A1101268A150C30031740
:10101000AF008A1150208A1501300317AF008A11E2
:1010200050208A1502300317A9000630AA00253087
:10103000AB008A1183218A1585140610861430307E
:10104000831685000614861006168A11C4268A1592
:10105000013003179C0017309D008A11DB268A158A
:10106000023083129C000313230803179D008A118A
:10107000DB268A1583129C011E309D008A11DB2617
:101080008A158B170B168116011281150114811018
:1010900001110117FC30831203138100210822047F
:1010A00003199128023003179C008A114F268A15D4
:1010B00070080313A300A401230803179C00031363
:1010C000240803179D00D5309E008A115A268A15E0
:1010D0000130AF008A1150208A1502300317A90091
:1010E0000630AA002F30AB008A1183218A15033005
:1010F0000317A9000230AA00D530AB008A11832162
:101100008A150430FB000C30FC003330FD00FD0B71
:101110008728FC0B8728FB0B872800000000A10113
:10112000A20100303A06031D972801303906031D3D
:10113000322A061E5A29043003179C008A11D12333
:101140008A158A11BB238A152330F400DB30F500A1
:101150007930F6007D30F7008A114D228A1570082B
:101160008316EB007108EC007208ED007308EE00C6
:101170000530831203179C008A11D1238A158A1126
:10118000BB238A152330F400DB30F5007930F600FC
:101190007D30F7008A114D228A1570088316E5000C
:1011A0007108E6007208E7007308E8006B08831214
:1011B00003179C00831603136C08831203179D000A
:1011C000831603136D08831203179E0083160313FF
:1011D0006E08831203179F00DD30A0008A11FB23E5
:1011E0008A15831603136508831203179C00831660
:1011F00003136608831203179D0083160313670801
:10120000831203179E0083160313680883120317C3
:101210009F001030A0008A11FB238A150130AF0017
:101220008A1150208A1502300317A9000530AA0040
:10123000A030AB008A1183218A150230FB000430F4
:10124000FC00BA30FD00FD0B2329FC0B2329FB0B0E
:10125000232900008510051401300317AF008A11FF
:1012600050208A15DD3003179C0063309D008A11E1
:1012700065238A150230A9000230AA005B30AB005A
:101280008A1183218A1502300317A9000930AA00A8
:10129000DD30AB008A1183218A150330FB00083052
:1012A000FC007730FD00FD0B5329FC0B5329FB0B91
:1012B0005329772901300317AF008A1150208A156E
:1012C00002300317A9000530AA00AD30AB008A1127
:1012D00083218A150230FB000430FC00BA30FD0087
:1012E000FD0B7029FC0B7029FB0B70290000B90164
:1012F000BA01013003179C008A114F268A158A1102
:1013000055238A1583166B08F4006C08F5006D08E8
:10131000F6006E08F7008A11F5218A1501300318CE
:101320000030F0007008031DB12903179C018A11D9
:101330004F268A158A1155238A1583166508F400ED
:101340006608F5006708F6006808F7008A11F521BD
:101350008A15013003180030F0007008031DB12910
:101360002D2A043003179C008A11D1238A158A1173
:10137000BB238A152330F400DB30F5007930F6000A
:101380007D30F7008A114D228A1570088316EB0014
:101390007108EC007208ED007308EE00053083124E
:1013A00003179C008A11D1238A158A11BB238A1541
:1013B0002330F400DB30F5007930F6007D30F700A3
:1013C0008A114D228A1570088316E5007108E6001F
:1013D0007208E7007308E8008312A30A0319A40A3D
:1013E000023003179C000313230803179D008A1182
:1013F000DB268A1501308312AF008A1150208A152E
:1014000001300317A9000530AA006630AB008A112D
:1014100083218A1503300317A9000530AA00C930BB
:10142000AB008A1183218A1504300317A900053007
:10143000AA00BE30AB008A1183218A1586100630BF
:1014400003179C0000309D008A112A238A158B16F1
:1014500083120313B901BA01322A86140130D9006C
:101460000030DA0000304E06031D382A01304D06E8
:10147000031D3F2A8A1187238A15CD01CE014E28EC
:02148000402A00
:040E0800003400347E
:040E0C00003400347A
:100E100045344E3420345634453449344C344C3403
:040E20004534003421
:100E2400703472346F3462346C3465346D346534C8
:040E340073340034DF
:040E3800003400344E
:100E3C0045344E3420345634453449344C344C34D7
:040E4C0045340034F5
:0E0E50004C3449344234453452344534003475
:020E5E000F344F
:040E60000034003426
:080E64004E3461344E340034B9
:080E6C0049344E3446340034D1
:040E740030340034E2
:040E7800003400340E
:100E7C00543465346D34703420343D3420340034B3
:060E8C0020344334003461
:100E9200473441345A34203444344534543445348C
:0A0EA2004334543445344434003422
:100EAC00473441345A3420344E344F345434203483
:100EBC004434453454344534433454344534443444
:020ECC000034F0
:100ECE0064346534203473346534753469346C3469
:060EDE0020342134003431
:100EE40044346534703461347334733465346D342C
:080EF40065346E3474340034DF
:100EFC00443441344E344734453452342034213454
:020F0C000034AF
:02400E007A3BFB
:00000001FF
